{
  "contractName": "P1Selection",
  "abi": [
    {
      "inputs": [
        {
          "internalType": "contract Trust",
          "name": "_trust",
          "type": "address"
        },
        {
          "internalType": "contract P2Selection",
          "name": "_p2selection",
          "type": "address"
        }
      ],
      "payable": false,
      "stateMutability": "nonpayable",
      "type": "constructor"
    },
    {
      "constant": true,
      "inputs": [],
      "name": "lambda",
      "outputs": [
        {
          "internalType": "uint256",
          "name": "",
          "type": "uint256"
        }
      ],
      "payable": false,
      "stateMutability": "view",
      "type": "function"
    },
    {
      "constant": true,
      "inputs": [],
      "name": "getList",
      "outputs": [
        {
          "internalType": "address[]",
          "name": "",
          "type": "address[]"
        }
      ],
      "payable": false,
      "stateMutability": "view",
      "type": "function"
    },
    {
      "constant": false,
      "inputs": [
        {
          "internalType": "address[]",
          "name": "data",
          "type": "address[]"
        }
      ],
      "name": "sortByScore",
      "outputs": [
        {
          "internalType": "address[]",
          "name": "",
          "type": "address[]"
        }
      ],
      "payable": false,
      "stateMutability": "nonpayable",
      "type": "function"
    },
    {
      "constant": false,
      "inputs": [],
      "name": "executePhase1",
      "outputs": [],
      "payable": false,
      "stateMutability": "nonpayable",
      "type": "function"
    }
  ],
  "bytecode": "0x6080604052603260005534801561001557600080fd5b506040516111a13803806111a18339818101604052604081101561003857600080fd5b81019080805190602001909291908051906020019092919050505081600160006101000a81548173ffffffffffffffffffffffffffffffffffffffff021916908373ffffffffffffffffffffffffffffffffffffffff16021790555080600260006101000a81548173ffffffffffffffffffffffffffffffffffffffff021916908373ffffffffffffffffffffffffffffffffffffffff16021790555033600360006101000a81548173ffffffffffffffffffffffffffffffffffffffff021916908373ffffffffffffffffffffffffffffffffffffffff160217905550505061107a806101276000396000f3fe608060405234801561001057600080fd5b506004361061004c5760003560e01c80633139667b1461005157806388966d251461015e578063942b765a14610168578063dad0be61146101c7575b600080fd5b6101076004803603602081101561006757600080fd5b810190808035906020019064010000000081111561008457600080fd5b82018360208201111561009657600080fd5b803590602001918460208302840111640100000000831117156100b857600080fd5b919080806020026020016040519081016040528093929190818152602001838360200280828437600081840152601f19601f8201169050808301925050505050505091929192905050506101e5565b6040518080602001828103825283818151815260200191508051906020019060200280838360005b8381101561014a57808201518184015260208101905061012f565b505050509050019250505060405180910390f35b6101666101ff565b005b610170610b71565b6040518080602001828103825283818151815260200191508051906020019060200280838360005b838110156101b3578082015181840152602081019050610198565b505050509050019250505060405180910390f35b6101cf610bff565b6040518082815260200191505060405180910390f35b60606101f78260006001855103610c05565b819050919050565b60006060610348600160009054906101000a900473ffffffffffffffffffffffffffffffffffffffff1673ffffffffffffffffffffffffffffffffffffffff16639eab52536040518163ffffffff1660e01b815260040160006040518083038186803b15801561026e57600080fd5b505afa158015610282573d6000803e3d6000fd5b505050506040513d6000823e3d601f19601f8201168201806040525060208110156102ac57600080fd5b81019080805160405193929190846401000000008211156102cc57600080fd5b838201915060208201858111156102e257600080fd5b82518660208202830111640100000000821117156102ff57600080fd5b8083526020830192505050908051906020019060200280838360005b8381101561033657808201518184015260208101905061031b565b505050509050016040525050506101e5565b905060008090505b8151811080156104495750600160009054906101000a900473ffffffffffffffffffffffffffffffffffffffff1673ffffffffffffffffffffffffffffffffffffffff1663f9f92be48383815181106103a557fe5b60200260200101516040518263ffffffff1660e01b8152600401808273ffffffffffffffffffffffffffffffffffffffff1673ffffffffffffffffffffffffffffffffffffffff16815260200191505060206040518083038186803b15801561040d57600080fd5b505afa158015610421573d6000803e3d6000fd5b505050506040513d602081101561043757600080fd5b81019080805190602001909291905050505b1561045957600181019050610350565b81518110156105d257600482828151811061047057fe5b602002602001015190806001815401808255809150509060018203906000526020600020016000909192909190916101000a81548173ffffffffffffffffffffffffffffffffffffffff021916908373ffffffffffffffffffffffffffffffffffffffff16021790555050600160009054906101000a900473ffffffffffffffffffffffffffffffffffffffff1673ffffffffffffffffffffffffffffffffffffffff1663cf652cd88360008151811061052657fe5b60200260200101516040518263ffffffff1660e01b8152600401808273ffffffffffffffffffffffffffffffffffffffff1673ffffffffffffffffffffffffffffffffffffffff16815260200191505060206040518083038186803b15801561058e57600080fd5b505afa1580156105a2573d6000803e3d6000fd5b505050506040513d60208110156105b857600080fd5b810190808051906020019092919050505092506001810190505b60008090505b8251821080156105e6575080155b15610a69576000600160009054906101000a900473ffffffffffffffffffffffffffffffffffffffff1673ffffffffffffffffffffffffffffffffffffffff1663cf652cd885858151811061063757fe5b60200260200101516040518263ffffffff1660e01b8152600401808273ffffffffffffffffffffffffffffffffffffffff1673ffffffffffffffffffffffffffffffffffffffff16815260200191505060206040518083038186803b15801561069f57600080fd5b505afa1580156106b3573d6000803e3d6000fd5b505050506040513d60208110156106c957600080fd5b810190808051906020019092919050505012156106e95760019050610a64565b6000548460646107e6600160009054906101000a900473ffffffffffffffffffffffffffffffffffffffff1673ffffffffffffffffffffffffffffffffffffffff1663cf652cd888888151811061073c57fe5b60200260200101516040518263ffffffff1660e01b8152600401808273ffffffffffffffffffffffffffffffffffffffff1673ffffffffffffffffffffffffffffffffffffffff16815260200191505060206040518083038186803b1580156107a457600080fd5b505afa1580156107b8573d6000803e3d6000fd5b505050506040513d60208110156107ce57600080fd5b81019080805190602001909291905050508803611029565b02816107ee57fe5b051280156108e65750600160009054906101000a900473ffffffffffffffffffffffffffffffffffffffff1673ffffffffffffffffffffffffffffffffffffffff1663f9f92be484848151811061084157fe5b60200260200101516040518263ffffffff1660e01b8152600401808273ffffffffffffffffffffffffffffffffffffffff1673ffffffffffffffffffffffffffffffffffffffff16815260200191505060206040518083038186803b1580156108a957600080fd5b505afa1580156108bd573d6000803e3d6000fd5b505050506040513d60208110156108d357600080fd5b8101908080519060200190929190505050155b15610a5e5760048383815181106108f957fe5b602002602001015190806001815401808255809150509060018203906000526020600020016000909192909190916101000a81548173ffffffffffffffffffffffffffffffffffffffff021916908373ffffffffffffffffffffffffffffffffffffffff16021790555050600160009054906101000a900473ffffffffffffffffffffffffffffffffffffffff1673ffffffffffffffffffffffffffffffffffffffff1663cf652cd88484815181106109ae57fe5b60200260200101516040518263ffffffff1660e01b8152600401808273ffffffffffffffffffffffffffffffffffffffff1673ffffffffffffffffffffffffffffffffffffffff16815260200191505060206040518083038186803b158015610a1657600080fd5b505afa158015610a2a573d6000803e3d6000fd5b505050506040513d6020811015610a4057600080fd5b81019080805190602001909291905050509350600182019150610a63565b600190505b5b6105d8565b600260009054906101000a900473ffffffffffffffffffffffffffffffffffffffff1673ffffffffffffffffffffffffffffffffffffffff16631fe3e64760046040518263ffffffff1660e01b815260040180806020018281038252838181548152602001915080548015610b3357602002820191906000526020600020905b8160009054906101000a900473ffffffffffffffffffffffffffffffffffffffff1673ffffffffffffffffffffffffffffffffffffffff1681526020019060010190808311610ae9575b505092505050600060405180830381600087803b158015610b5357600080fd5b505af1158015610b67573d6000803e3d6000fd5b5050505050505050565b60606004805480602002602001604051908101604052809291908181526020018280548015610bf557602002820191906000526020600020905b8160009054906101000a900473ffffffffffffffffffffffffffffffffffffffff1673ffffffffffffffffffffffffffffffffffffffff1681526020019060010190808311610bab575b5050505050905090565b60005481565b6000829050600082905080821415610c1e575050611024565b6000600160009054906101000a900473ffffffffffffffffffffffffffffffffffffffff1673ffffffffffffffffffffffffffffffffffffffff1663cf652cd887600288880381610c6b57fe5b05880181518110610c7857fe5b60200260200101516040518263ffffffff1660e01b8152600401808273ffffffffffffffffffffffffffffffffffffffff1673ffffffffffffffffffffffffffffffffffffffff16815260200191505060206040518083038186803b158015610ce057600080fd5b505afa158015610cf4573d6000803e3d6000fd5b505050506040513d6020811015610d0a57600080fd5b810190808051906020019092919050505090505b818313610ff8575b80600160009054906101000a900473ffffffffffffffffffffffffffffffffffffffff1673ffffffffffffffffffffffffffffffffffffffff1663cf652cd8888681518110610d7157fe5b60200260200101516040518263ffffffff1660e01b8152600401808273ffffffffffffffffffffffffffffffffffffffff1673ffffffffffffffffffffffffffffffffffffffff16815260200191505060206040518083038186803b158015610dd957600080fd5b505afa158015610ded573d6000803e3d6000fd5b505050506040513d6020811015610e0357600080fd5b81019080805190602001909291905050501315610e27578280600101935050610d26565b5b600160009054906101000a900473ffffffffffffffffffffffffffffffffffffffff1673ffffffffffffffffffffffffffffffffffffffff1663cf652cd8878481518110610e7257fe5b60200260200101516040518263ffffffff1660e01b8152600401808273ffffffffffffffffffffffffffffffffffffffff1673ffffffffffffffffffffffffffffffffffffffff16815260200191505060206040518083038186803b158015610eda57600080fd5b505afa158015610eee573d6000803e3d6000fd5b505050506040513d6020811015610f0457600080fd5b8101908080519060200190929190505050811315610f2a57818060019003925050610e28565b818313610ff357858281518110610f3d57fe5b6020026020010151868481518110610f5157fe5b6020026020010151878581518110610f6557fe5b60200260200101888581518110610f7857fe5b602002602001018273ffffffffffffffffffffffffffffffffffffffff1673ffffffffffffffffffffffffffffffffffffffff168152508273ffffffffffffffffffffffffffffffffffffffff1673ffffffffffffffffffffffffffffffffffffffff16815250505082806001019350508180600190039250505b610d1e565b8185121561100c5761100b868684610c05565b5b838312156110205761101f868486610c05565b5b5050505b505050565b60008082121561103c578160000361103e565b815b905091905056fea265627a7a72315820d8af7f89a0bf8cd7435ab3be268139ecbd805da01f5f0e357338909e7ca397ad64736f6c63430005100032",
  "source": "pragma solidity ^0.5.0;\n// smart contract respo for the trust model. \nimport \"./Trust.sol\" ; \nimport \"./P2Selection.sol\" ; \n\ncontract P1Selection {\nuint public lambda = 50 ; \nTrust trust ; \nP2Selection p2selection ; \naddress owner; \n// store the first phase list \naddress [] selectedList ; //sorted\n//address [] members  ; // get all registred addresses\n\nconstructor(Trust _trust, P2Selection _p2selection) public {\n        trust=_trust;\n        p2selection = _p2selection ;\n        owner = msg.sender; // recuperer l'adressee du celui qui a deployer la sc\n    }\n\n\n  function getList() public view returns (address [] memory) {\n     return selectedList; \n  }\n  function abs(int x) private pure returns (int) {\n    return x >= 0 ? x : -x;\n    } \n\n  function sortByScore(address[] memory data) public  returns(address[] memory) {\n       quickSort(data, int(0), int(data.length - 1));\n       return data;\n    }\n    \n    function quickSort(address[] memory arr, int left, int right) internal{\n        int i = left;\n        int j = right;\n        if(i==j) return;\n        int pivot = int(trust.ScoreOf(arr[uint(left + (right - left) / 2)]));\n        while (i <= j) {\n\n            while (int(trust.ScoreOf(arr[uint(i)]))> pivot) i++;\n\n            while (pivot > int(trust.ScoreOf(arr[uint(j)]))) j--;\n            if (i <= j) {\n                (arr[uint(i)], arr[uint(j)]) = (arr[uint(j)], arr[uint(i)]);\n                i++;\n                j--;\n            }\n        }\n        if (left < j)\n            quickSort(arr, left, j);\n        if (i < right)\n            quickSort(arr, i, right);\n    }\n\n    \nfunction executePhase1 () public { // store selected list on the state variable selectedList\n   // address [] members = trust.members ; // get all registred addresses\n    int lastscore ; \n    // sort registred nodes based on their scores ( descending)\n    address [] memory nodes ; \n    nodes = sortByScore(trust.getMembers()); //sort them \n    //algo starts here \n    uint i=0  ; \n    \n    //address taken = nodes[0]; \n    while ((i<nodes.length) && (trust.blacklist(nodes[i]))  ) {\n        i= i+1; \n    }\n    if (i<nodes.length) {\n        selectedList.push(nodes[i]);\n        lastscore = trust.ScoreOf(nodes[0]) ; \n        i=i+1;\n    }\n    \n    bool stop = false; \n    while ((i< nodes.length) && (!stop)){\n        if (trust.ScoreOf(nodes[i])<0){\n            //return taken\n            //p2selection.selectGW(taken); \n            stop= true; \n        }    \n        else { // score not null\n\n            if (((abs(lastscore-trust.ScoreOf(nodes[i]))*100/lastscore)< int(lambda)) && (!trust.blacklist(nodes[i]) )) {\n            selectedList.push(nodes[i]);\n            lastscore= trust.ScoreOf(nodes[i]);\n            i = i + 1    ;\n            }                  \n            else {\n                //return taken\n                //p2selection.selectGW(taken); \n                stop = true; \n            }\n        }\n\n    }\n    \n    //return taken\n    p2selection.selectGW(selectedList); \n    \n}\n\n}",
  "sourcePath": "/Users/yasmine/Desktop/PFE/ImplementationPFE/src/contracts/P1Selection.sol",
  "compiler": {
    "name": "solc",
    "version": "0.5.16+commit.9c3226ce.Emscripten.clang"
  },
  "schemaVersion": "3.4.1",
  "updatedAt": "2021-09-26T10:56:06.517Z",
  "networkType": "ethereum",
  "devdoc": {
    "methods": {}
  },
  "userdoc": {
    "methods": {}
  }
}