{
  "contractName": "P2Selection",
  "abi": [
    {
      "inputs": [
        {
          "internalType": "contract Trust",
          "name": "_trust",
          "type": "address"
        }
      ],
      "payable": false,
      "stateMutability": "nonpayable",
      "type": "constructor"
    },
    {
      "constant": true,
      "inputs": [
        {
          "internalType": "address",
          "name": "",
          "type": "address"
        }
      ],
      "name": "PerfOf",
      "outputs": [
        {
          "internalType": "int256",
          "name": "",
          "type": "int256"
        }
      ],
      "payable": false,
      "stateMutability": "view",
      "type": "function"
    },
    {
      "constant": true,
      "inputs": [],
      "name": "currentGW",
      "outputs": [
        {
          "internalType": "address",
          "name": "",
          "type": "address"
        }
      ],
      "payable": false,
      "stateMutability": "view",
      "type": "function"
    },
    {
      "constant": true,
      "inputs": [],
      "name": "getGW",
      "outputs": [
        {
          "internalType": "address",
          "name": "",
          "type": "address"
        }
      ],
      "payable": false,
      "stateMutability": "view",
      "type": "function"
    },
    {
      "constant": false,
      "inputs": [
        {
          "internalType": "address",
          "name": "gw",
          "type": "address"
        }
      ],
      "name": "setGW",
      "outputs": [],
      "payable": false,
      "stateMutability": "nonpayable",
      "type": "function"
    },
    {
      "constant": false,
      "inputs": [
        {
          "internalType": "address[]",
          "name": "listP1",
          "type": "address[]"
        }
      ],
      "name": "selectGW",
      "outputs": [],
      "payable": false,
      "stateMutability": "nonpayable",
      "type": "function"
    },
    {
      "constant": false,
      "inputs": [
        {
          "internalType": "address",
          "name": "adr",
          "type": "address"
        },
        {
          "internalType": "int256",
          "name": "p",
          "type": "int256"
        }
      ],
      "name": "setPerf",
      "outputs": [],
      "payable": false,
      "stateMutability": "nonpayable",
      "type": "function"
    }
  ],
  "bytecode": "0x608060405234801561001057600080fd5b506040516107c03803806107c08339818101604052602081101561003357600080fd5b8101908080519060200190929190505050806000806101000a81548173ffffffffffffffffffffffffffffffffffffffff021916908373ffffffffffffffffffffffffffffffffffffffff1602179055505061072c806100946000396000f3fe608060405234801561001057600080fd5b50600436106100625760003560e01c80631b44ed25146100675780631fe3e647146100b157806375a3220614610169578063a16624bf146101b3578063b76a9aaf14610201578063f945f8e014610259575b600080fd5b61006f61029d565b604051808273ffffffffffffffffffffffffffffffffffffffff1673ffffffffffffffffffffffffffffffffffffffff16815260200191505060405180910390f35b610167600480360360208110156100c757600080fd5b81019080803590602001906401000000008111156100e457600080fd5b8201836020820111156100f657600080fd5b8035906020019184602083028401116401000000008311171561011857600080fd5b919080806020026020016040519081016040528093929190818152602001838360200280828437600081840152601f19601f8201169050808301925050505050505091929192905050506102c7565b005b61017161062d565b604051808273ffffffffffffffffffffffffffffffffffffffff1673ffffffffffffffffffffffffffffffffffffffff16815260200191505060405180910390f35b6101ff600480360360408110156101c957600080fd5b81019080803573ffffffffffffffffffffffffffffffffffffffff16906020019092919080359060200190929190505050610653565b005b6102436004803603602081101561021757600080fd5b81019080803573ffffffffffffffffffffffffffffffffffffffff16906020019092919050505061069b565b6040518082815260200191505060405180910390f35b61029b6004803603602081101561026f57600080fd5b81019080803573ffffffffffffffffffffffffffffffffffffffff1690602001909291905050506106b3565b005b6000600160009054906101000a900473ffffffffffffffffffffffffffffffffffffffff16905090565b60008060009054906101000a900473ffffffffffffffffffffffffffffffffffffffff1673ffffffffffffffffffffffffffffffffffffffff1663cf652cd88360008151811061031357fe5b60200260200101516040518263ffffffff1660e01b8152600401808273ffffffffffffffffffffffffffffffffffffffff1673ffffffffffffffffffffffffffffffffffffffff16815260200191505060206040518083038186803b15801561037b57600080fd5b505afa15801561038f573d6000803e3d6000fd5b505050506040513d60208110156103a557600080fd5b810190808051906020019092919050505090506000826000815181106103c757fe5b602002602001015190506000600190505b83518110156105e657826000809054906101000a900473ffffffffffffffffffffffffffffffffffffffff1673ffffffffffffffffffffffffffffffffffffffff1663cf652cd886848151811061042b57fe5b60200260200101516040518263ffffffff1660e01b8152600401808273ffffffffffffffffffffffffffffffffffffffff1673ffffffffffffffffffffffffffffffffffffffff16815260200191505060206040518083038186803b15801561049357600080fd5b505afa1580156104a7573d6000803e3d6000fd5b505050506040513d60208110156104bd57600080fd5b810190808051906020019092919050505013156105d9576000809054906101000a900473ffffffffffffffffffffffffffffffffffffffff1673ffffffffffffffffffffffffffffffffffffffff1663cf652cd885838151811061051d57fe5b60200260200101516040518263ffffffff1660e01b8152600401808273ffffffffffffffffffffffffffffffffffffffff1673ffffffffffffffffffffffffffffffffffffffff16815260200191505060206040518083038186803b15801561058557600080fd5b505afa158015610599573d6000803e3d6000fd5b505050506040513d60208110156105af57600080fd5b810190808051906020019092919050505092508381815181106105ce57fe5b602002602001015191505b80806001019150506103d8565b5080600160006101000a81548173ffffffffffffffffffffffffffffffffffffffff021916908373ffffffffffffffffffffffffffffffffffffffff160217905550505050565b600160009054906101000a900473ffffffffffffffffffffffffffffffffffffffff1681565b80600260008473ffffffffffffffffffffffffffffffffffffffff1673ffffffffffffffffffffffffffffffffffffffff168152602001908152602001600020819055505050565b60026020528060005260406000206000915090505481565b80600160006101000a81548173ffffffffffffffffffffffffffffffffffffffff021916908373ffffffffffffffffffffffffffffffffffffffff1602179055505056fea265627a7a723158204abbadd62cea467fe5ae95cbb1f823c7375cac80bd7d31e85242c949baa6f92264736f6c63430005100032",
  "source": "pragma solidity ^0.5.0;\n// smart contract respo for the trust model. \nimport \"./Trust.sol\" ; \ncontract P2Selection {\nTrust trust ; \n\naddress public currentGW  ; \nmapping(address => int) public PerfOf; \n\nconstructor(Trust _trust) public {\n        trust=_trust;\n    }\nfunction getGW() public view returns (address){\n    return currentGW;\n}\n\nfunction setGW(address gw) public  {\n   currentGW = gw ;\n}\n\nfunction selectGW (address[] memory listP1) public {\n    // get the max(listP1) based on their perf\n    int max= trust.ScoreOf(listP1[0]) ; \n    address currentMax = listP1[0]; \n    for (uint i=1; i<listP1.length; i++){\n        if (trust.ScoreOf(listP1[i]) > max ){\n            max = trust.ScoreOf(listP1[i]);\n            currentMax = listP1[i] ;\n        }\n    }\n    \n    currentGW = currentMax ; \n}\n\nfunction setPerf(address adr, int p) public {\n    PerfOf[adr] = p ; \n\n}\n}\n",
  "sourcePath": "/Users/yasmine/Desktop/PFE/ImplementationPFE/src/contracts/P2Selection.sol",
  "compiler": {
    "name": "solc",
    "version": "0.5.16+commit.9c3226ce.Emscripten.clang"
  },
  "schemaVersion": "3.4.1",
  "updatedAt": "2021-09-26T10:56:06.523Z",
  "networkType": "ethereum",
  "devdoc": {
    "methods": {}
  },
  "userdoc": {
    "methods": {}
  }
}