{
  "contractName": "Registration",
  "abi": [
    {
      "inputs": [
        {
          "internalType": "contract Trust",
          "name": "_trust",
          "type": "address"
        },
        {
          "internalType": "contract P2Selection",
          "name": "_p2selection",
          "type": "address"
        }
      ],
      "payable": false,
      "stateMutability": "nonpayable",
      "type": "constructor"
    },
    {
      "constant": true,
      "inputs": [],
      "name": "owner",
      "outputs": [
        {
          "internalType": "address",
          "name": "",
          "type": "address"
        }
      ],
      "payable": false,
      "stateMutability": "view",
      "type": "function"
    },
    {
      "constant": true,
      "inputs": [],
      "name": "p2selection",
      "outputs": [
        {
          "internalType": "contract P2Selection",
          "name": "",
          "type": "address"
        }
      ],
      "payable": false,
      "stateMutability": "view",
      "type": "function"
    },
    {
      "constant": true,
      "inputs": [],
      "name": "trust",
      "outputs": [
        {
          "internalType": "contract Trust",
          "name": "",
          "type": "address"
        }
      ],
      "payable": false,
      "stateMutability": "view",
      "type": "function"
    },
    {
      "constant": false,
      "inputs": [
        {
          "internalType": "address",
          "name": "sender",
          "type": "address"
        }
      ],
      "name": "register",
      "outputs": [],
      "payable": false,
      "stateMutability": "nonpayable",
      "type": "function"
    }
  ],
  "bytecode": "0x608060405234801561001057600080fd5b506040516106113803806106118339818101604052604081101561003357600080fd5b81019080805190602001909291908051906020019092919050505081600160006101000a81548173ffffffffffffffffffffffffffffffffffffffff021916908373ffffffffffffffffffffffffffffffffffffffff160217905550336000806101000a81548173ffffffffffffffffffffffffffffffffffffffff021916908373ffffffffffffffffffffffffffffffffffffffff16021790555080600260006101000a81548173ffffffffffffffffffffffffffffffffffffffff021916908373ffffffffffffffffffffffffffffffffffffffff16021790555050506104f0806101216000396000f3fe608060405234801561001057600080fd5b506004361061004c5760003560e01c80633fb578c7146100515780634420e4861461009b5780636f9fdd66146100df5780638da5cb5b14610129575b600080fd5b610059610173565b604051808273ffffffffffffffffffffffffffffffffffffffff1673ffffffffffffffffffffffffffffffffffffffff16815260200191505060405180910390f35b6100dd600480360360208110156100b157600080fd5b81019080803573ffffffffffffffffffffffffffffffffffffffff169060200190929190505050610199565b005b6100e7610470565b604051808273ffffffffffffffffffffffffffffffffffffffff1673ffffffffffffffffffffffffffffffffffffffff16815260200191505060405180910390f35b610131610496565b604051808273ffffffffffffffffffffffffffffffffffffffff1673ffffffffffffffffffffffffffffffffffffffff16815260200191505060405180910390f35b600260009054906101000a900473ffffffffffffffffffffffffffffffffffffffff1681565b6000600160009054906101000a900473ffffffffffffffffffffffffffffffffffffffff1673ffffffffffffffffffffffffffffffffffffffff166368db49ed836040518263ffffffff1660e01b8152600401808273ffffffffffffffffffffffffffffffffffffffff1673ffffffffffffffffffffffffffffffffffffffff16815260200191505060206040518083038186803b15801561023a57600080fd5b505afa15801561024e573d6000803e3d6000fd5b505050506040513d602081101561026457600080fd5b8101908080519060200190929190505050905060001515811515146102f1576040517f08c379a00000000000000000000000000000000000000000000000000000000081526004018080602001828103825260118152602001807f416c72656164792072656769737472656400000000000000000000000000000081525060200191505060405180910390fd5b600160009054906101000a900473ffffffffffffffffffffffffffffffffffffffff1673ffffffffffffffffffffffffffffffffffffffff16639d95f1cc836040518263ffffffff1660e01b8152600401808273ffffffffffffffffffffffffffffffffffffffff1673ffffffffffffffffffffffffffffffffffffffff168152602001915050600060405180830381600087803b15801561039257600080fd5b505af11580156103a6573d6000803e3d6000fd5b50505050600260009054906101000a900473ffffffffffffffffffffffffffffffffffffffff1673ffffffffffffffffffffffffffffffffffffffff1663a16624bf83600a6040518363ffffffff1660e01b8152600401808373ffffffffffffffffffffffffffffffffffffffff1673ffffffffffffffffffffffffffffffffffffffff16815260200182815260200192505050600060405180830381600087803b15801561045457600080fd5b505af1158015610468573d6000803e3d6000fd5b505050505050565b600160009054906101000a900473ffffffffffffffffffffffffffffffffffffffff1681565b6000809054906101000a900473ffffffffffffffffffffffffffffffffffffffff168156fea265627a7a7231582072ca345a0bae874cb977d6d26f5729f89c145e6ae9e1fb0084013a3d6e820b9b64736f6c63430005100032",
  "source": "pragma solidity ^0.5.0;\n// register a new node to the blockchain trust model \nimport \"./Trust.sol\" ; \nimport \"./P2Selection.sol\" ;\n\ncontract Registration {\n    address public owner;\n    Trust public trust ;\n    P2Selection public p2selection; \n\n    constructor(Trust _trust, P2Selection _p2selection) public {\n        trust=_trust;\n        owner = msg.sender; // recuperer l'adressee du celui qui a deployer la sc\n        p2selection = _p2selection;\n    }\n\n\n    // Register a new user to trust System\n  function register(address sender) public {\n    // does the ID exists?\n    bool bol =trust.isRegistred(sender);\n    require(bol==false ,\"Already registred\"); //if not, the function will fail directly\n\n    // add the ID with S0 to scores. \n    trust.addNode(sender) ; \n    //trust.addressPresent[msg.sender] = true ;\n    p2selection.setPerf(sender,10) ; \n  }\n\n\n}",
  "sourcePath": "/Users/yasmine/Desktop/PFE/ImplementationPFE/src/contracts/Registration.sol",
  "compiler": {
    "name": "solc",
    "version": "0.5.16+commit.9c3226ce.Emscripten.clang"
  },
  "schemaVersion": "3.4.1",
  "updatedAt": "2021-09-26T10:56:06.491Z",
  "networkType": "ethereum",
  "devdoc": {
    "methods": {}
  },
  "userdoc": {
    "methods": {}
  }
}