{
  "contractName": "TokenFarm",
  "abi": [
    {
      "inputs": [
        {
          "internalType": "contract DappToken",
          "name": "_dappToken",
          "type": "address"
        },
        {
          "internalType": "contract DaiToken",
          "name": "_daiToken",
          "type": "address"
        }
      ],
      "payable": false,
      "stateMutability": "nonpayable",
      "type": "constructor"
    },
    {
      "constant": true,
      "inputs": [],
      "name": "daiToken",
      "outputs": [
        {
          "internalType": "contract DaiToken",
          "name": "",
          "type": "address"
        }
      ],
      "payable": false,
      "stateMutability": "view",
      "type": "function"
    },
    {
      "constant": true,
      "inputs": [],
      "name": "dappToken",
      "outputs": [
        {
          "internalType": "contract DappToken",
          "name": "",
          "type": "address"
        }
      ],
      "payable": false,
      "stateMutability": "view",
      "type": "function"
    },
    {
      "constant": true,
      "inputs": [
        {
          "internalType": "address",
          "name": "",
          "type": "address"
        }
      ],
      "name": "hasStaked",
      "outputs": [
        {
          "internalType": "bool",
          "name": "",
          "type": "bool"
        }
      ],
      "payable": false,
      "stateMutability": "view",
      "type": "function"
    },
    {
      "constant": true,
      "inputs": [
        {
          "internalType": "address",
          "name": "",
          "type": "address"
        }
      ],
      "name": "isStaking",
      "outputs": [
        {
          "internalType": "bool",
          "name": "",
          "type": "bool"
        }
      ],
      "payable": false,
      "stateMutability": "view",
      "type": "function"
    },
    {
      "constant": true,
      "inputs": [],
      "name": "name",
      "outputs": [
        {
          "internalType": "string",
          "name": "",
          "type": "string"
        }
      ],
      "payable": false,
      "stateMutability": "view",
      "type": "function"
    },
    {
      "constant": true,
      "inputs": [],
      "name": "owner",
      "outputs": [
        {
          "internalType": "address",
          "name": "",
          "type": "address"
        }
      ],
      "payable": false,
      "stateMutability": "view",
      "type": "function"
    },
    {
      "constant": true,
      "inputs": [
        {
          "internalType": "uint256",
          "name": "",
          "type": "uint256"
        }
      ],
      "name": "stakers",
      "outputs": [
        {
          "internalType": "address",
          "name": "",
          "type": "address"
        }
      ],
      "payable": false,
      "stateMutability": "view",
      "type": "function"
    },
    {
      "constant": true,
      "inputs": [
        {
          "internalType": "address",
          "name": "",
          "type": "address"
        }
      ],
      "name": "stakingBalance",
      "outputs": [
        {
          "internalType": "uint256",
          "name": "",
          "type": "uint256"
        }
      ],
      "payable": false,
      "stateMutability": "view",
      "type": "function"
    },
    {
      "constant": false,
      "inputs": [
        {
          "internalType": "uint256",
          "name": "_amount",
          "type": "uint256"
        }
      ],
      "name": "stakeTokens",
      "outputs": [],
      "payable": false,
      "stateMutability": "nonpayable",
      "type": "function"
    },
    {
      "constant": false,
      "inputs": [],
      "name": "issueToken",
      "outputs": [],
      "payable": false,
      "stateMutability": "nonpayable",
      "type": "function"
    },
    {
      "constant": false,
      "inputs": [],
      "name": "unstakeTokens",
      "outputs": [],
      "payable": false,
      "stateMutability": "nonpayable",
      "type": "function"
    }
  ],
  "bytecode": "0x60806040526040518060400160405280600f81526020017f4461707020546f6b656e204661726d00000000000000000000000000000000008152506000908051906020019061004f929190610164565b5034801561005c57600080fd5b5060405161103b38038061103b8339818101604052604081101561007f57600080fd5b81019080805190602001909291908051906020019092919050505081600160006101000a81548173ffffffffffffffffffffffffffffffffffffffff021916908373ffffffffffffffffffffffffffffffffffffffff16021790555080600260006101000a81548173ffffffffffffffffffffffffffffffffffffffff021916908373ffffffffffffffffffffffffffffffffffffffff16021790555033600360006101000a81548173ffffffffffffffffffffffffffffffffffffffff021916908373ffffffffffffffffffffffffffffffffffffffff1602179055505050610209565b828054600181600116156101000203166002900490600052602060002090601f016020900481019282601f106101a557805160ff19168380011785556101d3565b828001600101855582156101d3579182015b828111156101d25782518255916020019190600101906101b7565b5b5090506101e091906101e4565b5090565b61020691905b808211156102025760008160009055506001016101ea565b5090565b90565b610e23806102186000396000f3fe608060405234801561001057600080fd5b50600436106100a95760003560e01c80638da5cb5b116100715780638da5cb5b1461025d578063a1ee8c78146102a7578063a5ce413b146102b1578063be22f546146102bb578063c93c8f3414610305578063fd5e6dd114610361576100a9565b806306fdde03146100ae57806345bc78ab146101315780635eb186f8146101895780636f49712b146101d35780637547c7a31461022f575b600080fd5b6100b66103cf565b6040518080602001828103825283818151815260200191508051906020019080838360005b838110156100f65780820151818401526020810190506100db565b50505050905090810190601f1680156101235780820380516001836020036101000a031916815260200191505b509250505060405180910390f35b6101736004803603602081101561014757600080fd5b81019080803573ffffffffffffffffffffffffffffffffffffffff16906020019092919050505061046d565b6040518082815260200191505060405180910390f35b610191610485565b604051808273ffffffffffffffffffffffffffffffffffffffff1673ffffffffffffffffffffffffffffffffffffffff16815260200191505060405180910390f35b610215600480360360208110156101e957600080fd5b81019080803573ffffffffffffffffffffffffffffffffffffffff1690602001909291905050506104ab565b604051808215151515815260200191505060405180910390f35b61025b6004803603602081101561024557600080fd5b81019080803590602001909291905050506104cb565b005b6102656108b0565b604051808273ffffffffffffffffffffffffffffffffffffffff1673ffffffffffffffffffffffffffffffffffffffff16815260200191505060405180910390f35b6102af6108d6565b005b6102b9610b2d565b005b6102c3610d6c565b604051808273ffffffffffffffffffffffffffffffffffffffff1673ffffffffffffffffffffffffffffffffffffffff16815260200191505060405180910390f35b6103476004803603602081101561031b57600080fd5b81019080803573ffffffffffffffffffffffffffffffffffffffff169060200190929190505050610d92565b604051808215151515815260200191505060405180910390f35b61038d6004803603602081101561037757600080fd5b8101908080359060200190929190505050610db2565b604051808273ffffffffffffffffffffffffffffffffffffffff1673ffffffffffffffffffffffffffffffffffffffff16815260200191505060405180910390f35b60008054600181600116156101000203166002900480601f0160208091040260200160405190810160405280929190818152602001828054600181600116156101000203166002900480156104655780601f1061043a57610100808354040283529160200191610465565b820191906000526020600020905b81548152906001019060200180831161044857829003601f168201915b505050505081565b60056020528060005260406000206000915090505481565b600160009054906101000a900473ffffffffffffffffffffffffffffffffffffffff1681565b60076020528060005260406000206000915054906101000a900460ff1681565b60008111610541576040517f08c379a00000000000000000000000000000000000000000000000000000000081526004018080602001828103825260128152602001807f616d6f756e742063616e6e6f742062652030000000000000000000000000000081525060200191505060405180910390fd5b600260009054906101000a900473ffffffffffffffffffffffffffffffffffffffff1673ffffffffffffffffffffffffffffffffffffffff166323b872dd3330846040518463ffffffff1660e01b8152600401808473ffffffffffffffffffffffffffffffffffffffff1673ffffffffffffffffffffffffffffffffffffffff1681526020018373ffffffffffffffffffffffffffffffffffffffff1673ffffffffffffffffffffffffffffffffffffffff1681526020018281526020019350505050602060405180830381600087803b15801561061e57600080fd5b505af1158015610632573d6000803e3d6000fd5b505050506040513d602081101561064857600080fd5b81019080805190602001909291905050505080600560003373ffffffffffffffffffffffffffffffffffffffff1673ffffffffffffffffffffffffffffffffffffffff1681526020019081526020016000205401600560003373ffffffffffffffffffffffffffffffffffffffff1673ffffffffffffffffffffffffffffffffffffffff1681526020019081526020016000208190555060043390806001815401808255809150509060018203906000526020600020016000909192909190916101000a81548173ffffffffffffffffffffffffffffffffffffffff021916908373ffffffffffffffffffffffffffffffffffffffff16021790555050600660003373ffffffffffffffffffffffffffffffffffffffff1673ffffffffffffffffffffffffffffffffffffffff16815260200190815260200160002060009054906101000a900460ff166107fd5760043390806001815401808255809150509060018203906000526020600020016000909192909190916101000a81548173ffffffffffffffffffffffffffffffffffffffff021916908373ffffffffffffffffffffffffffffffffffffffff160217905550505b6001600760003373ffffffffffffffffffffffffffffffffffffffff1673ffffffffffffffffffffffffffffffffffffffff16815260200190815260200160002060006101000a81548160ff0219169083151502179055506001600660003373ffffffffffffffffffffffffffffffffffffffff1673ffffffffffffffffffffffffffffffffffffffff16815260200190815260200160002060006101000a81548160ff02191690831515021790555050565b600360009054906101000a900473ffffffffffffffffffffffffffffffffffffffff1681565b600360009054906101000a900473ffffffffffffffffffffffffffffffffffffffff1673ffffffffffffffffffffffffffffffffffffffff163373ffffffffffffffffffffffffffffffffffffffff1614610999576040517f08c379a00000000000000000000000000000000000000000000000000000000081526004018080602001828103825260188152602001807f63616c6c6572206d75737420626520746865206f776e6572000000000000000081525060200191505060405180910390fd5b60008090505b600480549050811015610b2a576000600482815481106109bb57fe5b9060005260206000200160009054906101000a900473ffffffffffffffffffffffffffffffffffffffff1690506000600560008373ffffffffffffffffffffffffffffffffffffffff1673ffffffffffffffffffffffffffffffffffffffff1681526020019081526020016000205490506000811115610b1b57600160009054906101000a900473ffffffffffffffffffffffffffffffffffffffff1673ffffffffffffffffffffffffffffffffffffffff1663a9059cbb83836040518363ffffffff1660e01b8152600401808373ffffffffffffffffffffffffffffffffffffffff1673ffffffffffffffffffffffffffffffffffffffff16815260200182815260200192505050602060405180830381600087803b158015610ade57600080fd5b505af1158015610af2573d6000803e3d6000fd5b505050506040513d6020811015610b0857600080fd5b8101908080519060200190929190505050505b5050808060010191505061099f565b50565b6000600560003373ffffffffffffffffffffffffffffffffffffffff1673ffffffffffffffffffffffffffffffffffffffff16815260200190815260200160002054905060008111610be7576040517f08c379a000000000000000000000000000000000000000000000000000000000815260040180806020018281038252601b8152602001807f7374616b696e672062616c616e63652063616e6e6f742062652030000000000081525060200191505060405180910390fd5b600260009054906101000a900473ffffffffffffffffffffffffffffffffffffffff1673ffffffffffffffffffffffffffffffffffffffff1663a9059cbb33836040518363ffffffff1660e01b8152600401808373ffffffffffffffffffffffffffffffffffffffff1673ffffffffffffffffffffffffffffffffffffffff16815260200182815260200192505050602060405180830381600087803b158015610c9057600080fd5b505af1158015610ca4573d6000803e3d6000fd5b505050506040513d6020811015610cba57600080fd5b8101908080519060200190929190505050506000600560003373ffffffffffffffffffffffffffffffffffffffff1673ffffffffffffffffffffffffffffffffffffffff168152602001908152602001600020819055506000600760003373ffffffffffffffffffffffffffffffffffffffff1673ffffffffffffffffffffffffffffffffffffffff16815260200190815260200160002060006101000a81548160ff02191690831515021790555050565b600260009054906101000a900473ffffffffffffffffffffffffffffffffffffffff1681565b60066020528060005260406000206000915054906101000a900460ff1681565b60048181548110610dbf57fe5b906000526020600020016000915054906101000a900473ffffffffffffffffffffffffffffffffffffffff168156fea265627a7a7231582015a622761f12d0883ce5783b38e591a45c08d6c38b93460fc550b733070c168764736f6c63430005100032",
  "source": "pragma solidity ^0.5.0;\n// this SC work: we stake Dai token fiha and after some itnerval we should earn some Dapp token\n\n// steps : deploy dai --> dapp --> then farm\nimport \"./DappToken.sol\" ;\nimport \"./DaiToken.sol\"; \n\ncontract TokenFarm { \n    // code here the sc \n    string public name = \"Dapp Token Farm\" ; \n    // name is state variable : will be stored on the blockchain\n    DappToken public dappToken; \n    DaiToken  public daiToken ;\n    address public owner;\n    \n\n    address[] public stakers;  // array that keeps track of all addresses that have staked inside the app.\n    mapping(address=> uint) public stakingBalance; // investor adr= key, value= the amount of tokens they're staking\n    mapping(address => bool) public hasStaked; // pou rune adresse elle retourne un bool if that user has staked. \n    mapping(address=> bool) public  isStaking;\n\n\n    constructor(DappToken _dappToken, DaiToken _daiToken) public {\n        dappToken = _dappToken; \n        daiToken = _daiToken ; \n        owner = msg.sender; // recuperer l'adressee du celui qui a deployer la sc\n    }\n\n    //now the corps du SC \n    //1. stakes tokens ( investor puts money on the app) DEPOSIT \n    function stakeTokens(uint _amount) public {\n\n        require(_amount > 0 , \"amount cannot be 0\"); //if not, the function will fail directly\n\n        // transfer investor toekns (dAI)  from his wallet to this SC \n        daiToken.transferFrom(msg.sender, address(this), _amount);\n        //transfer from is a delegated transfer ( i allow someone else to transfer my tokens)\n        //par contre tranfer is me spending my tokens. \n        \n\n        //update staking balance\n        stakingBalance[msg.sender]= stakingBalance[msg.sender] + _amount; // on cumule combien ils stake\n        stakers.push(msg.sender);\n\n        // add user to stakers array ssi they havent stake dalready \n        if (!hasStaked[msg.sender]){\n            stakers.push(msg.sender);\n        }\n\n        //update staking status\n        isStaking[msg.sender] = true;\n        hasStaked[msg.sender] = true;\n    }\n\n\n     //2. Issuing tokens ( called by owner of the sc : investors earning interest ( reawrd) )\n    function issueToken() public { \n        require(msg.sender == owner, 'caller must be the owner'); //controlling who can execute the SC. \n        for (uint i=0 ; i<stakers.length; i++){\n            //for each investor ( who staked) \n            address recipient = stakers[i]; \n            uint balance = stakingBalance[recipient]; //how much they staked\n            if (balance>0){\n                dappToken.transfer(recipient, balance); // for each staked dai, u earn the same amount of dapp. \n            }\n            \n        }\n\n    }\n\n\n    //3. unstaking tokens ( Withdraw== retirer) investor removes token from the app \n    function unstakeTokens() public {\n        // Fetch staking balance\n        uint balance = stakingBalance[msg.sender];\n\n        // Require amount greater than 0\n        require(balance > 0, \"staking balance cannot be 0\");\n\n        // Transfer Mock Dai tokens back to user\n        daiToken.transfer(msg.sender, balance);\n\n        // Reset staking balance\n        stakingBalance[msg.sender] = 0;\n\n        // Update staking status\n        isStaking[msg.sender] = false;\n    }\n\n\n}\n\n// helps access the variable val outside the sc. \n",
  "sourcePath": "/Users/yasmine/Desktop/PFE/ImplementationPFE/src/contracts/TokenFarm.sol",
  "compiler": {
    "name": "solc",
    "version": "0.5.16+commit.9c3226ce.Emscripten.clang"
  },
  "schemaVersion": "3.4.1",
  "updatedAt": "2021-06-21T11:59:34.253Z",
  "networkType": "ethereum",
  "devdoc": {
    "methods": {}
  },
  "userdoc": {
    "methods": {}
  }
}