{
  "contractName": "Trust",
  "abi": [
    {
      "inputs": [],
      "payable": false,
      "stateMutability": "nonpayable",
      "type": "constructor"
    },
    {
      "constant": true,
      "inputs": [
        {
          "internalType": "address",
          "name": "",
          "type": "address"
        }
      ],
      "name": "ScoreOf",
      "outputs": [
        {
          "internalType": "int256",
          "name": "",
          "type": "int256"
        }
      ],
      "payable": false,
      "stateMutability": "view",
      "type": "function"
    },
    {
      "constant": true,
      "inputs": [
        {
          "internalType": "address",
          "name": "",
          "type": "address"
        }
      ],
      "name": "addressPresent",
      "outputs": [
        {
          "internalType": "bool",
          "name": "",
          "type": "bool"
        }
      ],
      "payable": false,
      "stateMutability": "view",
      "type": "function"
    },
    {
      "constant": true,
      "inputs": [],
      "name": "alpha",
      "outputs": [
        {
          "internalType": "uint24",
          "name": "",
          "type": "uint24"
        }
      ],
      "payable": false,
      "stateMutability": "view",
      "type": "function"
    },
    {
      "constant": true,
      "inputs": [
        {
          "internalType": "uint256",
          "name": "",
          "type": "uint256"
        }
      ],
      "name": "arr",
      "outputs": [
        {
          "internalType": "int256",
          "name": "severity",
          "type": "int256"
        },
        {
          "internalType": "address",
          "name": "source",
          "type": "address"
        },
        {
          "internalType": "uint256",
          "name": "time",
          "type": "uint256"
        }
      ],
      "payable": false,
      "stateMutability": "view",
      "type": "function"
    },
    {
      "constant": true,
      "inputs": [
        {
          "internalType": "address",
          "name": "",
          "type": "address"
        }
      ],
      "name": "blacklist",
      "outputs": [
        {
          "internalType": "bool",
          "name": "",
          "type": "bool"
        }
      ],
      "payable": false,
      "stateMutability": "view",
      "type": "function"
    },
    {
      "constant": true,
      "inputs": [
        {
          "internalType": "uint256",
          "name": "",
          "type": "uint256"
        }
      ],
      "name": "blacklistA",
      "outputs": [
        {
          "internalType": "address",
          "name": "",
          "type": "address"
        }
      ],
      "payable": false,
      "stateMutability": "view",
      "type": "function"
    },
    {
      "constant": true,
      "inputs": [],
      "name": "lastTreated",
      "outputs": [
        {
          "internalType": "uint256",
          "name": "",
          "type": "uint256"
        }
      ],
      "payable": false,
      "stateMutability": "view",
      "type": "function"
    },
    {
      "constant": true,
      "inputs": [
        {
          "internalType": "uint256",
          "name": "",
          "type": "uint256"
        }
      ],
      "name": "listcomplains",
      "outputs": [
        {
          "internalType": "int256",
          "name": "severity",
          "type": "int256"
        },
        {
          "internalType": "address",
          "name": "source",
          "type": "address"
        },
        {
          "internalType": "uint256",
          "name": "time",
          "type": "uint256"
        }
      ],
      "payable": false,
      "stateMutability": "view",
      "type": "function"
    },
    {
      "constant": true,
      "inputs": [
        {
          "internalType": "uint256",
          "name": "",
          "type": "uint256"
        }
      ],
      "name": "members",
      "outputs": [
        {
          "internalType": "address",
          "name": "",
          "type": "address"
        }
      ],
      "payable": false,
      "stateMutability": "view",
      "type": "function"
    },
    {
      "constant": true,
      "inputs": [],
      "name": "owner",
      "outputs": [
        {
          "internalType": "address",
          "name": "",
          "type": "address"
        }
      ],
      "payable": false,
      "stateMutability": "view",
      "type": "function"
    },
    {
      "constant": true,
      "inputs": [],
      "name": "p2selection",
      "outputs": [
        {
          "internalType": "contract P2Selection",
          "name": "",
          "type": "address"
        }
      ],
      "payable": false,
      "stateMutability": "view",
      "type": "function"
    },
    {
      "constant": true,
      "inputs": [],
      "name": "s0",
      "outputs": [
        {
          "internalType": "uint24",
          "name": "",
          "type": "uint24"
        }
      ],
      "payable": false,
      "stateMutability": "view",
      "type": "function"
    },
    {
      "constant": true,
      "inputs": [],
      "name": "getMembers",
      "outputs": [
        {
          "internalType": "address[]",
          "name": "",
          "type": "address[]"
        }
      ],
      "payable": false,
      "stateMutability": "view",
      "type": "function"
    },
    {
      "constant": true,
      "inputs": [],
      "name": "getAlpha",
      "outputs": [
        {
          "internalType": "int256",
          "name": "",
          "type": "int256"
        }
      ],
      "payable": false,
      "stateMutability": "view",
      "type": "function"
    },
    {
      "constant": true,
      "inputs": [],
      "name": "getBeta",
      "outputs": [
        {
          "internalType": "int256",
          "name": "",
          "type": "int256"
        }
      ],
      "payable": false,
      "stateMutability": "view",
      "type": "function"
    },
    {
      "constant": true,
      "inputs": [],
      "name": "getBlackList",
      "outputs": [
        {
          "internalType": "address[]",
          "name": "",
          "type": "address[]"
        }
      ],
      "payable": false,
      "stateMutability": "view",
      "type": "function"
    },
    {
      "constant": true,
      "inputs": [],
      "name": "getNBComplains",
      "outputs": [
        {
          "internalType": "uint256",
          "name": "",
          "type": "uint256"
        }
      ],
      "payable": false,
      "stateMutability": "view",
      "type": "function"
    },
    {
      "constant": true,
      "inputs": [],
      "name": "getComplains",
      "outputs": [
        {
          "components": [
            {
              "internalType": "int256",
              "name": "severity",
              "type": "int256"
            },
            {
              "internalType": "address",
              "name": "source",
              "type": "address"
            },
            {
              "internalType": "uint256",
              "name": "time",
              "type": "uint256"
            }
          ],
          "internalType": "struct Trust.Complaint[]",
          "name": "",
          "type": "tuple[]"
        }
      ],
      "payable": false,
      "stateMutability": "view",
      "type": "function"
    },
    {
      "constant": true,
      "inputs": [
        {
          "internalType": "address",
          "name": "adr",
          "type": "address"
        }
      ],
      "name": "calculatSignal",
      "outputs": [
        {
          "internalType": "int256",
          "name": "",
          "type": "int256"
        }
      ],
      "payable": false,
      "stateMutability": "view",
      "type": "function"
    },
    {
      "constant": true,
      "inputs": [
        {
          "internalType": "address",
          "name": "adr",
          "type": "address"
        }
      ],
      "name": "calculReward",
      "outputs": [
        {
          "internalType": "int256",
          "name": "",
          "type": "int256"
        }
      ],
      "payable": false,
      "stateMutability": "view",
      "type": "function"
    },
    {
      "constant": true,
      "inputs": [
        {
          "internalType": "address",
          "name": "adr",
          "type": "address"
        }
      ],
      "name": "isRegistred",
      "outputs": [
        {
          "internalType": "bool",
          "name": "",
          "type": "bool"
        }
      ],
      "payable": false,
      "stateMutability": "view",
      "type": "function"
    },
    {
      "constant": false,
      "inputs": [
        {
          "internalType": "address",
          "name": "adr",
          "type": "address"
        }
      ],
      "name": "addNode",
      "outputs": [],
      "payable": false,
      "stateMutability": "nonpayable",
      "type": "function"
    },
    {
      "constant": false,
      "inputs": [
        {
          "internalType": "address",
          "name": "adr",
          "type": "address"
        }
      ],
      "name": "blackList",
      "outputs": [],
      "payable": false,
      "stateMutability": "nonpayable",
      "type": "function"
    },
    {
      "constant": false,
      "inputs": [
        {
          "internalType": "address",
          "name": "adr",
          "type": "address"
        },
        {
          "internalType": "uint24",
          "name": "signal",
          "type": "uint24"
        }
      ],
      "name": "applyCost",
      "outputs": [],
      "payable": false,
      "stateMutability": "nonpayable",
      "type": "function"
    },
    {
      "constant": false,
      "inputs": [
        {
          "internalType": "address",
          "name": "adr",
          "type": "address"
        },
        {
          "internalType": "uint24",
          "name": "signal",
          "type": "uint24"
        }
      ],
      "name": "applyReward",
      "outputs": [],
      "payable": false,
      "stateMutability": "nonpayable",
      "type": "function"
    },
    {
      "constant": true,
      "inputs": [
        {
          "internalType": "int256",
          "name": "x",
          "type": "int256"
        }
      ],
      "name": "g",
      "outputs": [
        {
          "internalType": "int256",
          "name": "",
          "type": "int256"
        }
      ],
      "payable": false,
      "stateMutability": "pure",
      "type": "function"
    },
    {
      "constant": false,
      "inputs": [
        {
          "components": [
            {
              "internalType": "int256",
              "name": "severity",
              "type": "int256"
            },
            {
              "internalType": "address",
              "name": "source",
              "type": "address"
            },
            {
              "internalType": "uint256",
              "name": "time",
              "type": "uint256"
            }
          ],
          "internalType": "struct Trust.Complaint[]",
          "name": "_complains2treat",
          "type": "tuple[]"
        },
        {
          "internalType": "address",
          "name": "gw",
          "type": "address"
        }
      ],
      "name": "applyPenalty",
      "outputs": [],
      "payable": false,
      "stateMutability": "nonpayable",
      "type": "function"
    },
    {
      "constant": false,
      "inputs": [
        {
          "internalType": "address",
          "name": "adr",
          "type": "address"
        },
        {
          "internalType": "int256",
          "name": "_severity",
          "type": "int256"
        },
        {
          "internalType": "address",
          "name": "gw",
          "type": "address"
        }
      ],
      "name": "complaint",
      "outputs": [
        {
          "internalType": "bool",
          "name": "",
          "type": "bool"
        }
      ],
      "payable": false,
      "stateMutability": "nonpayable",
      "type": "function"
    }
  ],
  "bytecode": "0x608060405260016000806101000a81548162ffffff021916908362ffffff1602179055506001600060036101000a81548162ffffff021916908362ffffff1602179055506064600060066101000a81548162ffffff021916908362ffffff1602179055506000600555600060065534801561007957600080fd5b5033600160006101000a81548173ffffffffffffffffffffffffffffffffffffffff021916908373ffffffffffffffffffffffffffffffffffffffff160217905550611d59806100ca6000396000f3fe608060405234801561001057600080fd5b50600436106101c45760003560e01c8063848a8694116100f9578063ca9f83e011610097578063db1d0fd511610071578063db1d0fd514610559578063e305777814610577578063f4988a3d14610595578063f9f92be4146105b3576101c4565b8063ca9f83e0146104dd578063cf59ef2f1461050d578063cf652cd814610529576101c4565b80639d95f1cc116100d35780639d95f1cc146104415780639eab52531461045d578063a86572721461047b578063c1f32c44146104ad576101c4565b8063848a8694146103e957806386b222c6146104075780638da5cb5b14610423576101c4565b806349c02814116101665780635f73ec8f116101405780635f73ec8f1461033957806368db49ed1461035757806371e5ee5f146103875780637877b803146103b9576101c4565b806349c02814146102bb578063501e8212146102eb5780635daf08ca14610309576101c4565b80633e2bb707116101a25780633e2bb707146102355780633fb578c7146102515780634257cf351461026f5780634838d1651461029f576101c4565b80630a088a2f146101c95780631feb8e3b146101f9578063360b97b914610217575b600080fd5b6101e360048036036101de9190810190611873565b6105e3565b6040516101f09190611a51565b60405180910390f35b61020161061f565b60405161020e9190611a8e565b60405180910390f35b61021f6106ed565b60405161022c9190611a6c565b60405180910390f35b61024f600480360361024a91908101906117f6565b61077b565b005b610259610909565b6040516102669190611acb565b60405180910390f35b6102896004803603610284919081019061176b565b61092f565b6040516102969190611ab0565b60405180910390f35b6102b960048036036102b49190810190611742565b610d84565b005b6102d560048036036102d09190810190611742565b610e45565b6040516102e29190611ab0565b60405180910390f35b6102f3610e65565b6040516103009190611b38565b60405180910390f35b610323600480360361031e9190810190611873565b610e7a565b6040516103309190611a51565b60405180910390f35b610341610eb6565b60405161034e9190611ae6565b60405180910390f35b610371600480360361036c9190810190611742565b610ed3565b60405161037e9190611ab0565b60405180910390f35b6103a1600480360361039c9190810190611873565b610f39565b6040516103b093929190611b01565b60405180910390f35b6103d360048036036103ce919081019061184a565b610f90565b6040516103e09190611ae6565b60405180910390f35b6103f1610fa6565b6040516103fe9190611b53565b60405180910390f35b610421600480360361041c91908101906117ba565b610fb3565b005b61042b611136565b6040516104389190611a51565b60405180910390f35b61045b60048036036104569190810190611742565b61115c565b005b610465611277565b6040516104729190611a6c565b60405180910390f35b61049560048036036104909190810190611873565b611305565b6040516104a493929190611b01565b60405180910390f35b6104c760048036036104c29190810190611742565b61135c565b6040516104d49190611ae6565b60405180910390f35b6104f760048036036104f29190810190611742565b6113ce565b6040516105049190611ae6565b60405180910390f35b610527600480360361052291908101906117ba565b611465565b005b610543600480360361053e9190810190611742565b611565565b6040516105509190611ae6565b60405180910390f35b61056161157d565b60405161056e9190611b38565b60405180910390f35b61057f611591565b60405161058c9190611b53565b60405180910390f35b61059d611597565b6040516105aa9190611ae6565b60405180910390f35b6105cd60048036036105c89190810190611742565b6115b4565b6040516105da9190611ab0565b60405180910390f35b600a81815481106105f057fe5b906000526020600020016000915054906101000a900473ffffffffffffffffffffffffffffffffffffffff1681565b6060806002805480602002602001604051908101604052809291908181526020016000905b828210156106e05783829060005260206000209060030201604051806060016040529081600082015481526020016001820160009054906101000a900473ffffffffffffffffffffffffffffffffffffffff1673ffffffffffffffffffffffffffffffffffffffff1673ffffffffffffffffffffffffffffffffffffffff16815260200160028201548152505081526020019060010190610644565b5050505090508091505090565b6060600a80548060200260200160405190810160405280929190818152602001828054801561077157602002820191906000526020600020905b8160009054906101000a900473ffffffffffffffffffffffffffffffffffffffff1673ffffffffffffffffffffffffffffffffffffffff1681526020019060010190808311610727575b5050505050905090565b60006107856115d4565b600080600080600090505b875181101561080d578781815181106107a557fe5b6020026020010151945060086000866020015173ffffffffffffffffffffffffffffffffffffffff1673ffffffffffffffffffffffffffffffffffffffff16815260200190815260200160002054840193508460000151830192508080600101915050610790565b50600554838161081957fe5b059050600554828161082757fe5b059150610835828202610f90565b600860008873ffffffffffffffffffffffffffffffffffffffff1673ffffffffffffffffffffffffffffffffffffffff16815260200190815260200160002054029450600a8202600860008873ffffffffffffffffffffffffffffffffffffffff1673ffffffffffffffffffffffffffffffffffffffff1681526020019081526020016000205403600860008873ffffffffffffffffffffffffffffffffffffffff1673ffffffffffffffffffffffffffffffffffffffff1681526020019081526020016000208190555050505050505050565b600060099054906101000a900473ffffffffffffffffffffffffffffffffffffffff1681565b6000806000905061093f85610ed3565b15610d795761094c6115d4565b8481600001818152505085816020019073ffffffffffffffffffffffffffffffffffffffff16908173ffffffffffffffffffffffffffffffffffffffff168152505042816040018181525050600281908060018154018082558091505090600182039060005260206000209060030201600090919290919091506000820151816000015560208201518160010160006101000a81548173ffffffffffffffffffffffffffffffffffffffff021916908373ffffffffffffffffffffffffffffffffffffffff1602179055506040820151816002015550505060016005540160058190555060008090506000600554600280549050039050610a4b6115d4565b60008290505b600280549050811015610b3e5760028181548110610a6b57fe5b9060005260206000209060030201604051806060016040529081600082015481526020016001820160009054906101000a900473ffffffffffffffffffffffffffffffffffffffff1673ffffffffffffffffffffffffffffffffffffffff1673ffffffffffffffffffffffffffffffffffffffff16815260200160028201548152505091508973ffffffffffffffffffffffffffffffffffffffff16826020015173ffffffffffffffffffffffffffffffffffffffff161415610b315760019350610b3e565b8080600101915050610a51565b5082610b51576001600654016006819055505b600080905060036005541415610b6657600190505b8015610d7357600060055460028054905003905060008190505b600280549050811015610c6057600360028281548110610b9c57fe5b906000526020600020906003020190806001815401808255809150509060018203906000526020600020906003020160009091929091909150600082015481600001556001820160009054906101000a900473ffffffffffffffffffffffffffffffffffffffff168160010160006101000a81548173ffffffffffffffffffffffffffffffffffffffff021916908373ffffffffffffffffffffffffffffffffffffffff160217905550600282015481600201555050508080600101915050610b80565b50610d2c6003805480602002602001604051908101604052809291908181526020016000905b82821015610d225783829060005260206000209060030201604051806060016040529081600082015481526020016001820160009054906101000a900473ffffffffffffffffffffffffffffffffffffffff1673ffffffffffffffffffffffffffffffffffffffff1673ffffffffffffffffffffffffffffffffffffffff16815260200160028201548152505081526020019060010190610c86565b505050508a61077b565b60006005819055506000600681905550600260016002805490500381548110610d5157fe5b9060005260206000209060030201600201546004819055506001965060009150505b50505050505b809150509392505050565b600a8190806001815401808255809150509060018203906000526020600020016000909192909190916101000a81548173ffffffffffffffffffffffffffffffffffffffff021916908373ffffffffffffffffffffffffffffffffffffffff160217905550506001600b60008373ffffffffffffffffffffffffffffffffffffffff1673ffffffffffffffffffffffffffffffffffffffff16815260200190815260200160002060006101000a81548160ff02191690831515021790555050565b60076020528060005260406000206000915054906101000a900460ff1681565b600060069054906101000a900462ffffff1681565b60098181548110610e8757fe5b906000526020600020016000915054906101000a900473ffffffffffffffffffffffffffffffffffffffff1681565b60008060039054906101000a900462ffffff1662ffffff16905090565b6000600760008373ffffffffffffffffffffffffffffffffffffffff1673ffffffffffffffffffffffffffffffffffffffff16815260200190815260200160002060009054906101000a900460ff16610f2f5760009050610f34565b600190505b919050565b60038181548110610f4657fe5b90600052602060002090600302016000915090508060000154908060010160009054906101000a900473ffffffffffffffffffffffffffffffffffffffff16908060020154905083565b6000600182018281610f9e57fe5b059050919050565b6000600280549050905090565b60026000809054906101000a900462ffffff1662ffffff16600860008573ffffffffffffffffffffffffffffffffffffffff1673ffffffffffffffffffffffffffffffffffffffff168152602001908152602001600020540a82600060039054906101000a900462ffffff160262ffffff168161102c57fe5b048161103457fe5b046000809054906101000a900462ffffff1662ffffff16600860008573ffffffffffffffffffffffffffffffffffffffff1673ffffffffffffffffffffffffffffffffffffffff168152602001908152602001600020540a82600060039054906101000a900462ffffff160262ffffff16816110ac57fe5b04600860008573ffffffffffffffffffffffffffffffffffffffff1673ffffffffffffffffffffffffffffffffffffffff168152602001908152602001600020540101600860008473ffffffffffffffffffffffffffffffffffffffff1673ffffffffffffffffffffffffffffffffffffffff168152602001908152602001600020819055505050565b600160009054906101000a900473ffffffffffffffffffffffffffffffffffffffff1681565b60098190806001815401808255809150509060018203906000526020600020016000909192909190916101000a81548173ffffffffffffffffffffffffffffffffffffffff021916908373ffffffffffffffffffffffffffffffffffffffff160217905550506001600760008373ffffffffffffffffffffffffffffffffffffffff1673ffffffffffffffffffffffffffffffffffffffff16815260200190815260200160002060006101000a81548160ff021916908315150217905550600060069054906101000a900462ffffff1662ffffff16600860008373ffffffffffffffffffffffffffffffffffffffff1673ffffffffffffffffffffffffffffffffffffffff1681526020019081526020016000208190555050565b606060098054806020026020016040519081016040528092919081815260200182805480156112fb57602002820191906000526020600020905b8160009054906101000a900473ffffffffffffffffffffffffffffffffffffffff1673ffffffffffffffffffffffffffffffffffffffff16815260200190600101908083116112b1575b5050505050905090565b6002818154811061131257fe5b90600052602060002090600302016000915090508060000154908060010160009054906101000a900473ffffffffffffffffffffffffffffffffffffffff16908060020154905083565b600080611368836113ce565b905060016000809054906101000a900462ffffff160162ffffff1660018161138c57fe5b0462ffffff1660016000809054906101000a900462ffffff160162ffffff1682600060039054906101000a900462ffffff1662ffffff1602020a915050919050565b600060016000809054906101000a900462ffffff1601600060039054906101000a900462ffffff160262ffffff1660016000809054906101000a900462ffffff160162ffffff16600860008573ffffffffffffffffffffffffffffffffffffffff1673ffffffffffffffffffffffffffffffffffffffff168152602001908152602001600020540a8161145d57fe5b049050919050565b6000809054906101000a900462ffffff1662ffffff16600860008473ffffffffffffffffffffffffffffffffffffffff1673ffffffffffffffffffffffffffffffffffffffff168152602001908152602001600020540a81600060039054906101000a900462ffffff160262ffffff16816114dc57fe5b04600860008473ffffffffffffffffffffffffffffffffffffffff1673ffffffffffffffffffffffffffffffffffffffff1681526020019081526020016000205403600860008473ffffffffffffffffffffffffffffffffffffffff1673ffffffffffffffffffffffffffffffffffffffff168152602001908152602001600020819055505050565b60086020528060005260406000206000915090505481565b6000809054906101000a900462ffffff1681565b60045481565b60008060009054906101000a900462ffffff1662ffffff16905090565b600b6020528060005260406000206000915054906101000a900460ff1681565b604051806060016040528060008152602001600073ffffffffffffffffffffffffffffffffffffffff168152602001600081525090565b60008135905061161a81611cba565b92915050565b600082601f83011261163157600080fd5b813561164461163f82611b9b565b611b6e565b9150818183526020840193506020810190508385606084028201111561166957600080fd5b60005b83811015611699578161167f88826116b8565b84526020840193506060830192505060018101905061166c565b5050505092915050565b6000813590506116b281611cd1565b92915050565b6000606082840312156116ca57600080fd5b6116d46060611b6e565b905060006116e4848285016116a3565b60008301525060206116f88482850161160b565b602083015250604061170c8482850161172d565b60408301525092915050565b60008135905061172781611ce8565b92915050565b60008135905061173c81611cff565b92915050565b60006020828403121561175457600080fd5b60006117628482850161160b565b91505092915050565b60008060006060848603121561178057600080fd5b600061178e8682870161160b565b935050602061179f868287016116a3565b92505060406117b08682870161160b565b9150509250925092565b600080604083850312156117cd57600080fd5b60006117db8582860161160b565b92505060206117ec85828601611718565b9150509250929050565b6000806040838503121561180957600080fd5b600083013567ffffffffffffffff81111561182357600080fd5b61182f85828601611620565b92505060206118408582860161160b565b9150509250929050565b60006020828403121561185c57600080fd5b600061186a848285016116a3565b91505092915050565b60006020828403121561188557600080fd5b60006118938482850161172d565b91505092915050565b60006118a883836118cc565b60208301905092915050565b60006118c083836119e2565b60608301905092915050565b6118d581611c35565b82525050565b6118e481611c35565b82525050565b60006118f582611be3565b6118ff8185611c13565b935061190a83611bc3565b8060005b8381101561193b578151611922888261189c565b975061192d83611bf9565b92505060018101905061190e565b5085935050505092915050565b600061195382611bee565b61195d8185611c24565b935061196883611bd3565b8060005b8381101561199957815161198088826118b4565b975061198b83611c06565b92505060018101905061196c565b5085935050505092915050565b6119af81611c47565b82525050565b6119be81611c96565b82525050565b6119cd81611c53565b82525050565b6119dc81611c53565b82525050565b6060820160008201516119f860008501826119c4565b506020820151611a0b60208501826118cc565b506040820151611a1e6040850182611a33565b50505050565b611a2d81611c7d565b82525050565b611a3c81611c8c565b82525050565b611a4b81611c8c565b82525050565b6000602082019050611a6660008301846118db565b92915050565b60006020820190508181036000830152611a8681846118ea565b905092915050565b60006020820190508181036000830152611aa88184611948565b905092915050565b6000602082019050611ac560008301846119a6565b92915050565b6000602082019050611ae060008301846119b5565b92915050565b6000602082019050611afb60008301846119d3565b92915050565b6000606082019050611b1660008301866119d3565b611b2360208301856118db565b611b306040830184611a42565b949350505050565b6000602082019050611b4d6000830184611a24565b92915050565b6000602082019050611b686000830184611a42565b92915050565b6000604051905081810181811067ffffffffffffffff82111715611b9157600080fd5b8060405250919050565b600067ffffffffffffffff821115611bb257600080fd5b602082029050602081019050919050565b6000819050602082019050919050565b6000819050602082019050919050565b600081519050919050565b600081519050919050565b6000602082019050919050565b6000602082019050919050565b600082825260208201905092915050565b600082825260208201905092915050565b6000611c4082611c5d565b9050919050565b60008115159050919050565b6000819050919050565b600073ffffffffffffffffffffffffffffffffffffffff82169050919050565b600062ffffff82169050919050565b6000819050919050565b6000611ca182611ca8565b9050919050565b6000611cb382611c5d565b9050919050565b611cc381611c35565b8114611cce57600080fd5b50565b611cda81611c53565b8114611ce557600080fd5b50565b611cf181611c7d565b8114611cfc57600080fd5b50565b611d0881611c8c565b8114611d1357600080fd5b5056fea365627a7a72315820a6c409b6570c40e5c73588054a9b10a11c273b31aa410305094b39f3ec8d27af6c6578706572696d656e74616cf564736f6c63430005100040",
  "source": "pragma solidity ^0.5.0;\npragma experimental ABIEncoderV2;\n\n// smart contract respo for the trust model. \nimport \"./P2Selection.sol\" ; \n\ncontract Trust {\n\n//state variables : will be stored on the blockchain\nuint24 public alpha = 1 ; \nuint24 beta = 1 ; \nuint24 public s0 = 100; //initial score for nodes\nP2Selection public  p2selection ; \naddress public owner;\n\n//variables for the complaints treatment \n\nstruct Complaint {\n  int severity; \n  address source; \n  uint256 time ; \n}\nComplaint [] public listcomplains ;\nComplaint [] public arr;\nuint256 public lastTreated; \nint cptNotTreated = 0; \nuint nbDifferent= 0 ;\n\n//maps an address to a bool : is it registred?\nmapping (address => bool) public addressPresent;//array that keeps track of all addresses that have registred to the DTM.\n// get score of a node\nmapping(address => int) public ScoreOf;\n\naddress []  public members; // do we really need this ? YES in selection\naddress []  public blacklistA; // do we really need this ? YES in selection\n\nmapping(address => bool) public blacklist ;  // returns  true if the node is blacklisted \n\n\nconstructor(/*P2Selection _p2selection*/) public {\n    //p2selection =_p2selection;\n    owner = msg.sender; // recuperer l'adressee du celui qui a deployer la sc\n}\n\nfunction getMembers() public view returns (address[] memory){\n  return members ;\n}\nfunction getAlpha() public view   returns (int) {\n  return int(alpha) ; \n}\n\nfunction getBeta() public view returns (int) {\n  return int(beta) ; \n}\nfunction getBlackList() public view returns (address[] memory){\n  return blacklistA ;\n}\n\nfunction getNBComplains() public view returns (uint){\n  return listcomplains.length ;\n}\n\nfunction getComplains() public view returns (Complaint[] memory){\n  Complaint[] memory cs = listcomplains ; \n  return cs ;\n}\nfunction calculatSignal(address adr) public view returns (int256) {\n\n  return int256((uint(ScoreOf[adr]) **uint(alpha +1)) / uint(beta * (alpha +1)));\n}\n\nfunction calculReward(address adr) public view returns( int256) {\nint256 sign = calculatSignal(adr); \n\nreturn int256(uint256(beta* sign * (alpha+1))** uint(1/(alpha+1))); \n}\n\nfunction isRegistred(address adr) public view returns (bool) {\nif (!addressPresent[adr]) {return false ;}\nreturn true ;\n}\n\nfunction addNode (address adr) public {\nmembers.push(adr);\naddressPresent[adr] = true ;\nScoreOf[adr] = s0;\n}\n\nfunction blackList(address adr) public {\n  blacklistA.push(adr); \n  blacklist[adr] = true ; \n}\n\n\n// function to apply a cost on the account with address adr \nfunction applyCost(address adr, uint24 signal) public {\nScoreOf[adr] = ScoreOf[adr] - int(beta * signal / (uint(ScoreOf[adr])**uint(alpha)) ); \n}\n\n// function to give a reward \nfunction applyReward(address adr, uint24 signal) public  {\n  ScoreOf[adr] = ScoreOf[adr] + int(beta * signal / (uint(ScoreOf[adr])**uint(alpha))) + int((beta * signal / (uint(ScoreOf[adr])**uint(alpha)) )/2); \n}\n\n\n\nfunction g (int x) public  pure returns (int) { //sigmoidal function\n  return (int(x /(x+1)) ); \n}\n//function to apply a penalty to the gateway ( ie treat complaints)\nfunction applyPenalty(Complaint []  memory _complains2treat, address gw) public {\n  // Compute penalty based on complaints list ( their scores) and nbDifferent ( distribution)\n  int penalty;\n  Complaint memory c ; \n  int Si; \n  int severity ; \n  int EvalP; \n  for (uint i=0; i< _complains2treat.length ; i++) {\n    c = _complains2treat[i] ; \n    Si= Si+ ScoreOf[c.source] ; // sum of scores\n    severity = severity + c.severity ; \n  }\n\n  EvalP = Si / cptNotTreated ;\n  severity =  severity / cptNotTreated; // average severity. \n  penalty = ScoreOf[gw] * g(EvalP * severity) ; \n\n  // apply the penalty to the gateway\n  ScoreOf[gw] = ScoreOf[gw] - severity*10; // aulieu de severity * 10 normalement penalty!\n}\n\n\n// recieve a complaint and do the necesary log + treat \nfunction complaint(address adr, int _severity, address gw) public returns (bool) {\n  bool selectGW = false ; \n// log the complaint on the blockchian \nif (isRegistred(adr) ){\n  Complaint memory _complaint;\n_complaint.severity = _severity; \n_complaint.source = adr ;\n_complaint.time = now ; \n\nlistcomplains.push(_complaint) ; \ncptNotTreated = cptNotTreated +1 ;\nbool exists = false ; \nint index = int(listcomplains.length) - cptNotTreated ; // index of the first not treated complaint.\n//address [] memory arr ; \nComplaint memory x; \nfor (uint i=uint(index) ; i<listcomplains.length; i++ ) { // check in the intreated complaints whether this adr is already calculated. \n  x = listcomplains[i] ; \n  if (x.source == adr ){\n      exists = true; \n      break ;\n  }\n}\nif (!exists){ // if this node hasnt complained before \n  nbDifferent = nbDifferent +1 ;\n}\n \n\n// check if its time to apply penalty , if yes call the function applyPenalty\nbool time2apply = false; \n\n//HERE\nif (cptNotTreated ==3){\n  time2apply = true ;\n}\n\nif (time2apply ) {\n  int index2 = int(int(listcomplains.length) - cptNotTreated ); // index of the first not treated complaint.\n  for (uint i=uint(index2); i<listcomplains.length; i++){\n    arr.push(listcomplains[i] ) ; \n  }\n\n  applyPenalty((arr),gw);\n  // reinit vars cpts \n  cptNotTreated = 0 ; \n  nbDifferent = 0 ; \n  lastTreated = listcomplains[listcomplains.length -1].time;\n  selectGW = true ;\n  time2apply = false;\n}\n\n\n}\nreturn selectGW; \n} \n\n}",
  "sourcePath": "/Users/yasmine/Desktop/PFE/ImplementationPFE/src/contracts/Trust.sol",
  "compiler": {
    "name": "solc",
    "version": "0.5.16+commit.9c3226ce.Emscripten.clang"
  },
  "schemaVersion": "3.4.1",
  "updatedAt": "2021-09-26T10:56:06.453Z",
  "networkType": "ethereum",
  "devdoc": {
    "methods": {}
  },
  "userdoc": {
    "methods": {}
  }
}